{
  "contractName": "baseContract",
  "abi": [
    {
      "inputs": [
        {
          "internalType": "uint256",
          "name": "",
          "type": "uint256"
        }
      ],
      "name": "addressLogistics",
      "outputs": [
        {
          "internalType": "address payable",
          "name": "",
          "type": "address"
        }
      ],
      "stateMutability": "view",
      "type": "function",
      "constant": true
    },
    {
      "inputs": [
        {
          "internalType": "address payable",
          "name": "_address",
          "type": "address"
        },
        {
          "internalType": "string",
          "name": "name",
          "type": "string"
        },
        {
          "internalType": "string",
          "name": "location",
          "type": "string"
        },
        {
          "internalType": "uint256",
          "name": "payment_amt",
          "type": "uint256"
        }
      ],
      "name": "addLogisticsProvider",
      "outputs": [],
      "stateMutability": "nonpayable",
      "type": "function"
    },
    {
      "inputs": [],
      "name": "getLogisticsAddresses",
      "outputs": [
        {
          "internalType": "address payable[]",
          "name": "",
          "type": "address[]"
        }
      ],
      "stateMutability": "view",
      "type": "function",
      "constant": true
    },
    {
      "inputs": [
        {
          "internalType": "address",
          "name": "_address",
          "type": "address"
        }
      ],
      "name": "getDataLogistics",
      "outputs": [
        {
          "internalType": "string",
          "name": "",
          "type": "string"
        },
        {
          "internalType": "string",
          "name": "",
          "type": "string"
        }
      ],
      "stateMutability": "view",
      "type": "function",
      "constant": true
    },
    {
      "inputs": [],
      "name": "addEther",
      "outputs": [],
      "stateMutability": "payable",
      "type": "function",
      "payable": true
    },
    {
      "inputs": [],
      "name": "getBalanceOnContract",
      "outputs": [
        {
          "internalType": "uint256",
          "name": "",
          "type": "uint256"
        }
      ],
      "stateMutability": "view",
      "type": "function",
      "constant": true
    },
    {
      "inputs": [],
      "name": "hasSufficientFunds",
      "outputs": [
        {
          "internalType": "bool",
          "name": "",
          "type": "bool"
        }
      ],
      "stateMutability": "view",
      "type": "function",
      "constant": true
    },
    {
      "inputs": [
        {
          "internalType": "address payable",
          "name": "_address",
          "type": "address"
        },
        {
          "internalType": "uint256",
          "name": "amt",
          "type": "uint256"
        }
      ],
      "name": "payEther",
      "outputs": [],
      "stateMutability": "nonpayable",
      "type": "function"
    },
    {
      "inputs": [],
      "name": "releasePayment",
      "outputs": [],
      "stateMutability": "nonpayable",
      "type": "function"
    },
    {
      "inputs": [
        {
          "internalType": "address",
          "name": "_address",
          "type": "address"
        },
        {
          "internalType": "string",
          "name": "name",
          "type": "string"
        },
        {
          "internalType": "string",
          "name": "category",
          "type": "string"
        },
        {
          "internalType": "string",
          "name": "_update",
          "type": "string"
        }
      ],
      "name": "setUpdate",
      "outputs": [],
      "stateMutability": "nonpayable",
      "type": "function"
    }
  ],
  "bytecode": "0x608060405234801561001057600080fd5b50611218806100206000396000f3fe6080604052600436106100915760003560e01c8063d11a5b5711610059578063d11a5b5714610148578063d60b314914610186578063d6227f72146101b1578063e04c75d7146101da578063f88ba45e1461020357610091565b80631ef4f8de146100965780638894dd2b146100c1578063b8326753146100cb578063bb8a9f30146100f4578063d116c8c414610131575b600080fd5b3480156100a257600080fd5b506100ab61022e565b6040516100b891906109fd565b60405180910390f35b6100c96102fc565b005b3480156100d757600080fd5b506100f260048036038101906100ed9190610ac0565b6102fe565b005b34801561010057600080fd5b5061011b60048036038101906101169190610b00565b610349565b6040516101289190610b3c565b60405180910390f35b34801561013d57600080fd5b50610146610388565b005b34801561015457600080fd5b5061016f600480360381019061016a9190610b95565b6104fe565b60405161017d929190610c5b565b60405180910390f35b34801561019257600080fd5b5061019b6106a4565b6040516101a89190610ca1565b60405180910390f35b3480156101bd57600080fd5b506101d860048036038101906101d39190610df1565b6106ac565b005b3480156101e657600080fd5b5061020160048036038101906101fc9190610e90565b610793565b005b34801561020f57600080fd5b506102186108b1565b6040516102259190611009565b60405180910390f35b6000806000905060005b6001805490508110156102eb5760006001828154811061025b5761025a61102b565b5b9060005260206000200160009054906101000a900473ffffffffffffffffffffffffffffffffffffffff1690506000808273ffffffffffffffffffffffffffffffffffffffff1673ffffffffffffffffffffffffffffffffffffffff16815260200190815260200160002060020154836102d59190611089565b92505080806102e3906110df565b915050610238565b506000479050818110159250505090565b565b8173ffffffffffffffffffffffffffffffffffffffff166108fc829081150290604051600060405180830381858888f19350505050158015610344573d6000803e3d6000fd5b505050565b6001818154811061035957600080fd5b906000526020600020016000915054906101000a900473ffffffffffffffffffffffffffffffffffffffff1681565b3073ffffffffffffffffffffffffffffffffffffffff16631ef4f8de6040518163ffffffff1660e01b815260040160206040518083038186803b1580156103ce57600080fd5b505afa1580156103e2573d6000803e3d6000fd5b505050506040513d601f19601f820116820180604052508101906104069190611154565b156104fc5760005b6001805490508110156104fa576000600182815481106104315761043061102b565b5b9060005260206000200160009054906101000a900473ffffffffffffffffffffffffffffffffffffffff1690508073ffffffffffffffffffffffffffffffffffffffff166108fc6000808473ffffffffffffffffffffffffffffffffffffffff1673ffffffffffffffffffffffffffffffffffffffff168152602001908152602001600020600201549081150290604051600060405180830381858888f193505050501580156104e5573d6000803e3d6000fd5b505080806104f2906110df565b91505061040e565b505b565b6060806000808473ffffffffffffffffffffffffffffffffffffffff1673ffffffffffffffffffffffffffffffffffffffff1681526020019081526020016000206000016000808573ffffffffffffffffffffffffffffffffffffffff1673ffffffffffffffffffffffffffffffffffffffff16815260200190815260200160002060010181805461058f906111b0565b80601f01602080910402602001604051908101604052809291908181526020018280546105bb906111b0565b80156106085780601f106105dd57610100808354040283529160200191610608565b820191906000526020600020905b8154815290600101906020018083116105eb57829003601f168201915b5050505050915080805461061b906111b0565b80601f0160208091040260200160405190810160405280929190818152602001828054610647906111b0565b80156106945780601f1061066957610100808354040283529160200191610694565b820191906000526020600020905b81548152906001019060200180831161067757829003601f168201915b5050505050905091509150915091565b600047905090565b60008060008673ffffffffffffffffffffffffffffffffffffffff1673ffffffffffffffffffffffffffffffffffffffff16815260200190815260200160002090508381600001908051906020019061070692919061093f565b508281600101908051906020019061071f92919061093f565b508181600201819055506001859080600181540180825580915050600190039060005260206000200160009091909190916101000a81548173ffffffffffffffffffffffffffffffffffffffff021916908373ffffffffffffffffffffffffffffffffffffffff1602179055505050505050565b60006040518060a001604052808673ffffffffffffffffffffffffffffffffffffffff168152602001858152602001848152602001428152602001838152509050600281908060018154018082558091505060019003906000526020600020906005020160009091909190915060008201518160000160006101000a81548173ffffffffffffffffffffffffffffffffffffffff021916908373ffffffffffffffffffffffffffffffffffffffff160217905550602082015181600101908051906020019061086392919061093f565b50604082015181600201908051906020019061088092919061093f565b506060820151816003015560808201518160040190805190602001906108a792919061093f565b5050505050505050565b6060600180548060200260200160405190810160405280929190818152602001828054801561093557602002820191906000526020600020905b8160009054906101000a900473ffffffffffffffffffffffffffffffffffffffff1673ffffffffffffffffffffffffffffffffffffffff16815260200190600101908083116108eb575b5050505050905090565b82805461094b906111b0565b90600052602060002090601f01602090048101928261096d57600085556109b4565b82601f1061098657805160ff19168380011785556109b4565b828001600101855582156109b4579182015b828111156109b3578251825591602001919060010190610998565b5b5090506109c191906109c5565b5090565b5b808211156109de5760008160009055506001016109c6565b5090565b60008115159050919050565b6109f7816109e2565b82525050565b6000602082019050610a1260008301846109ee565b92915050565b6000604051905090565b600080fd5b600080fd5b600073ffffffffffffffffffffffffffffffffffffffff82169050919050565b6000610a5782610a2c565b9050919050565b610a6781610a4c565b8114610a7257600080fd5b50565b600081359050610a8481610a5e565b92915050565b6000819050919050565b610a9d81610a8a565b8114610aa857600080fd5b50565b600081359050610aba81610a94565b92915050565b60008060408385031215610ad757610ad6610a22565b5b6000610ae585828601610a75565b9250506020610af685828601610aab565b9150509250929050565b600060208284031215610b1657610b15610a22565b5b6000610b2484828501610aab565b91505092915050565b610b3681610a4c565b82525050565b6000602082019050610b516000830184610b2d565b92915050565b6000610b6282610a2c565b9050919050565b610b7281610b57565b8114610b7d57600080fd5b50565b600081359050610b8f81610b69565b92915050565b600060208284031215610bab57610baa610a22565b5b6000610bb984828501610b80565b91505092915050565b600081519050919050565b600082825260208201905092915050565b60005b83811015610bfc578082015181840152602081019050610be1565b83811115610c0b576000848401525b50505050565b6000601f19601f8301169050919050565b6000610c2d82610bc2565b610c378185610bcd565b9350610c47818560208601610bde565b610c5081610c11565b840191505092915050565b60006040820190508181036000830152610c758185610c22565b90508181036020830152610c898184610c22565b90509392505050565b610c9b81610a8a565b82525050565b6000602082019050610cb66000830184610c92565b92915050565b600080fd5b600080fd5b7f4e487b7100000000000000000000000000000000000000000000000000000000600052604160045260246000fd5b610cfe82610c11565b810181811067ffffffffffffffff82111715610d1d57610d1c610cc6565b5b80604052505050565b6000610d30610a18565b9050610d3c8282610cf5565b919050565b600067ffffffffffffffff821115610d5c57610d5b610cc6565b5b610d6582610c11565b9050602081019050919050565b82818337600083830152505050565b6000610d94610d8f84610d41565b610d26565b905082815260208101848484011115610db057610daf610cc1565b5b610dbb848285610d72565b509392505050565b600082601f830112610dd857610dd7610cbc565b5b8135610de8848260208601610d81565b91505092915050565b60008060008060808587031215610e0b57610e0a610a22565b5b6000610e1987828801610a75565b945050602085013567ffffffffffffffff811115610e3a57610e39610a27565b5b610e4687828801610dc3565b935050604085013567ffffffffffffffff811115610e6757610e66610a27565b5b610e7387828801610dc3565b9250506060610e8487828801610aab565b91505092959194509250565b60008060008060808587031215610eaa57610ea9610a22565b5b6000610eb887828801610b80565b945050602085013567ffffffffffffffff811115610ed957610ed8610a27565b5b610ee587828801610dc3565b935050604085013567ffffffffffffffff811115610f0657610f05610a27565b5b610f1287828801610dc3565b925050606085013567ffffffffffffffff811115610f3357610f32610a27565b5b610f3f87828801610dc3565b91505092959194509250565b600081519050919050565b600082825260208201905092915050565b6000819050602082019050919050565b610f8081610a4c565b82525050565b6000610f928383610f77565b60208301905092915050565b6000602082019050919050565b6000610fb682610f4b565b610fc08185610f56565b9350610fcb83610f67565b8060005b83811015610ffc578151610fe38882610f86565b9750610fee83610f9e565b925050600181019050610fcf565b5085935050505092915050565b600060208201905081810360008301526110238184610fab565b905092915050565b7f4e487b7100000000000000000000000000000000000000000000000000000000600052603260045260246000fd5b7f4e487b7100000000000000000000000000000000000000000000000000000000600052601160045260246000fd5b600061109482610a8a565b915061109f83610a8a565b9250827fffffffffffffffffffffffffffffffffffffffffffffffffffffffffffffffff038211156110d4576110d361105a565b5b828201905092915050565b60006110ea82610a8a565b91507fffffffffffffffffffffffffffffffffffffffffffffffffffffffffffffffff82141561111d5761111c61105a565b5b600182019050919050565b611131816109e2565b811461113c57600080fd5b50565b60008151905061114e81611128565b92915050565b60006020828403121561116a57611169610a22565b5b60006111788482850161113f565b91505092915050565b7f4e487b7100000000000000000000000000000000000000000000000000000000600052602260045260246000fd5b600060028204905060018216806111c857607f821691505b602082108114156111dc576111db611181565b5b5091905056fea26469706673582212208680a56980114ebf58b27bdba5a0a11be6c98054e5a8fd2275d5fc845f06fd2664736f6c63430008090033",
  "immutableReferences": {},
  "source": "pragma solidity ^0.8.9;\r\ncontract baseContract {\r\n\r\n  struct updateStruct{\r\n    address _address;\r\n    string name;\r\n    string category;\r\n    uint256 timestamp;\r\n    string update;\r\n  }\r\n\r\n\r\n  // structuring the data for logistics provider\r\n  struct logiStruct{\r\n    string name;\r\n    string location;\r\n    uint payment_amt;\r\n  }\r\n\r\n  mapping (address => logiStruct) logisticsProviders;\r\n  address payable [] public addressLogistics;\r\n  \r\n  //adding a logistics provider to the contract\r\n  function addLogisticsProvider(address payable _address, string memory name, string memory location, uint payment_amt) public {\r\n      logiStruct storage logi = logisticsProviders[_address];\r\n      \r\n      logi.name = name;\r\n      logi.location = location;\r\n      logi.payment_amt = payment_amt;\r\n      \r\n      addressLogistics.push(_address);\r\n  }\r\n  \r\n  //getting addresses of the logistics providers included in our contract.\r\n  function getLogisticsAddresses() external view returns(address payable [] memory) {\r\n      return addressLogistics;\r\n  }\r\n  \r\n  //fetching name and location of logistics Provider who were registered on the contract\r\n  function getDataLogistics(address _address) external view returns(string memory, string memory){\r\n      return (logisticsProviders[_address].name, logisticsProviders[_address].location);\r\n  }\r\n  \r\n  function addEther() external payable{}\r\n  \r\n  //checking value present on contract\r\n  function getBalanceOnContract() external view returns(uint){\r\n    return address(this).balance;\r\n  }\r\n  \r\n  function hasSufficientFunds() external view returns(bool){\r\n      uint amt_payable = 0;\r\n      for(uint i = 0; i<addressLogistics.length; i++){\r\n          address a = addressLogistics[i];\r\n          amt_payable =  amt_payable + logisticsProviders[a].payment_amt;\r\n      }\r\n      uint available_amt = address(this).balance;\r\n      return available_amt>=amt_payable;\r\n  }\r\n  \r\n  \r\n  //handling payments below\r\n  function payEther(address payable _address, uint amt) external{\r\n      _address.transfer(amt);\r\n  }\r\n  function releasePayment() external{\r\n      if(this.hasSufficientFunds()){\r\n          for(uint i = 0; i<addressLogistics.length; i++){\r\n              address payable a = addressLogistics[i];\r\n              a.transfer(logisticsProviders[a].payment_amt);\r\n          }\r\n      }\r\n  }\r\n  \r\n  updateStruct[] updates;\r\n  function setUpdate(address _address, string memory name, string memory category, string memory _update) external {\r\n      updateStruct memory update = updateStruct(_address, name, category, block.timestamp, _update);\r\n      updates.push(update);\r\n  }\r\n}\r\n",
  "sourcePath": "D:\\github\\logichain-backend\\contracts\\baseContract.sol",
  "compiler": {
    "name": "solc",
    "version": "0.8.9+commit.e5eed63a.Emscripten.clang"
  },
  "schemaVersion": "3.4.3",
  "updatedAt": "2021-11-15T16:45:23.778Z",
  "networkType": "ethereum",
  "devdoc": {
    "kind": "dev",
    "methods": {},
    "version": 1
  },
  "userdoc": {
    "kind": "user",
    "methods": {},
    "version": 1
  }
}